:020000040800F2
:10000000001A0020890100085F0700085707000850
:100010005B0700081D050008250D00080000000012
:10002000000000000000000000000000210900089E
:100030003F06000800000000D1070008ED0A000894
:10004000A3010008A3010008A3010008A301000800
:10005000A3010008A3010008A3010008A3010008F0
:10006000A3010008A3010008A30100083D05000842
:10007000A3010008A3010008A3010008A3010008D0
:10008000A3010008A3010008A3010008A3010008C0
:10009000A3010008A3010008A3010008A3010008B0
:1000A000A3010008A3010008A3010008A3010008A0
:1000B000A3010008A3010008A3010008A301000890
:1000C000A3010008A3010008A3010008A301000880
:1000D000A3010008A3010008A3010008A301000870
:1000E000A3010008A3010008A301000800F002F822
:1000F00000F03AF80AA090E8000C82448344AAF188
:100100000107DA4501D100F02FF8AFF2090EBAE885
:100110000F0013F0010F18BFFB1A43F0010318473B
:10012000700C0000900C0000103A24BF78C878C111
:10013000FAD8520724BF30C830C144BF04680C60ED
:10014000704700000023002400250026103A28BF35
:1001500078C1FBD8520728BF30C148BF0B60704739
:100160001FB51FBD10B510BD00F031F81146FFF7E7
:10017000F7FF00F0D9FD00F04FF803B4FFF7F2FFEE
:1001800003BC00F057F800000948804709480047C1
:10019000FEE7FEE7FEE7FEE7FEE7FEE7FEE7FEE737
:1001A000FEE7FEE704480549054A064B7047000094
:1001B000F10A0008ED00000800140020001A0020D9
:1001C00000160020001600207047704770477546E3
:1001D00000F02CF8AE4605006946534620F00700B3
:1001E000854618B020B5FFF7DDFFBDE820404FF091
:1001F00000064FF000074FF000084FF0000B21F011
:100200000701AC46ACE8C009ACE8C009ACE8C009DD
:10021000ACE8C0098D46704710B50446AFF30080C6
:100220002046BDE81040FFF7A8BF00000048704717
:10023000A013002001491820ABBEFEE726000200F3
:10024000704721B1826842F00102826003E0826857
:1002500022F001028260704721B1826842F480720C
:10026000826003E0826822F480728260704721B16C
:10027000826842F48012826003E0826822F4801275
:1002800082607047014600208A6802F004020AB1C9
:10029000012000E000207047014600208A6802F03B
:1002A00008020AB1012000E00020704730B5024684
:1002B0000020002350680F4C20400D790C6844EA60
:1002C00005242043506090680B4C2040D1E9025433
:1002D0002C434D7944EA450420439060D06A20F4D1
:1002E00070000C7C641EE4B2234340EA0350D062E9
:1002F00030BD0000FFFEF0FFFDF7F1FFF0B5044652
:100300000D4600200021092D11DDE068A5F10A0647
:1003100006EB4607072606FA07F18843A5F10A0609
:1003200006EB460603FA06F10843E0600CE020699C
:1003300005EB4507072606FA07F1884305EB450656
:1003400003FA06F108432061072A0FDA606B561E94
:1003500006EB86071F2606FA07F18843561E06EBB2
:10036000860605FA06F10843606322E00D2A0FDADB
:10037000206BD61F06EB86071F2606FA07F1884377
:10038000D61F06EB860605FA06F10843206310E047
:10039000E06AA2F10D0606EB86071F2606FA07F1B2
:1003A0008843A2F10D0606EB860605FA06F108431E
:1003B000E062F0BD816841F00801816070478168AA
:1003C00041F004018160704700B595B001214FF400
:1003D000017000F02BFA0121022000F017FA012130
:1003E000084600F003FA4FF4004000F0F3F9002053
:1003F0008DF853000120ADF8500014A9424800F0D8
:100400001FF94720ADF844001320ADF84800002044
:10041000ADF84A00ADF8460011A93C4800F0AEFB2B
:1004200020213A4800F0A0FB002301221946384859
:10043000FFF764FF00200C900F904FF400200E9007
:1004400000208DF835008DF8340001208DF8400033
:100450000CA92F48FFF72AFF01212D48FFF707FFBE
:100460002B484C30019080150790002005902948BA
:1004700002904FF480600890802006900020039046
:100480004FF4FA6004902020099000200B904FF464
:1004900000500A9001A9204800F0B1F80B208DF817
:1004A000000001208DF801008DF802008DF8030096
:1004B000684600F055F901220621174800F096F829
:1004C0000121154800F070F801211148FFF7C4FE22
:1004D00001210F48FFF7B5FE0D48FFF76BFF00BF86
:1004E0000B48FFF7D9FE0128FAD00948FFF767FF4C
:1004F00000BF0748FFF7C6FE0128FAD001210348D4
:1005000000F026FB15B000BD0008014000040040CB
:1005100000240140180000200800024000BFFEE750
:1005200010B50346002005E033F81040C4F307146B
:100530000C54401C9042F7DB10BD000010B50420A5
:1005400000F03EF828B1012007490870042000F0AF
:100550001DF8022000F034F828B10120034908708A
:10056000022000F013F810BD140000201500002038
:1005700000F0805111B10349086001E00249486070
:1005800070470000040402400000024000F0805167
:1005900011B10349086001E002494860704700005A
:1005A000040402400000024021B1026842F001024E
:1005B000026004E002684FF6FE731A400260704762
:1005C00001460020002201F0805313B1054B1A6848
:1005D00001E0054B1A6802EA01030BB1012000E0BB
:1005E0000020704700040240000002401AB1036876
:1005F0000B43036002E003688B430360704710B550
:100600000022026847F6F0739A430C6A8B68234312
:100610000C6923434C6923438C692343CC692343EE
:100620004C6A23438C6A23431A430260CB684360BD
:100630000B6883604B68C36010BD416070477047B2
:100640002DE9F04102460025002600200023002469
:10065000002791F803C00CF00F0591F803C00CF0CF
:10066000100CBCF1000F03D091F802C04CEA050554
:1006700091F800C0BCF1000F31D0146800202BE0CD
:100680004FF0010C0CFA00F3B1F800C00CEA0306BD
:100690009E4220D183004FF00F0C0CFA03F7BC43AD
:1006A00005FA03FC4CEA040491F803C0BCF1280FDE
:1006B00006D14FF0010C0CFA00FCC2F814C00AE09D
:1006C00091F803C0BCF1480F05D14FF0010C0CFAB2
:1006D00000FCC2F810C0401C0828D1D31460B1F847
:1006E00000C0BCF1FF0F34DD546800202EE000F1A3
:1006F000080C4FF0010808FA0CF3B1F800C00CEA3E
:1007000003069E4221D183004FF00F0C0CFA03F731
:10071000BC4305FA03FC4CEA040491F803C0BCF1A5
:10072000280F05D100F1080C08FA0CF8C2F8148063
:1007300091F803C0BCF1480F07D100F1080C4FF04D
:10074000010808FA0CF8C2F81080401C0828CED323
:100750005460BDE8F08100BFFEE700BFFEE77047D0
:1007600070B5002100230F22C47804B3154C24680F
:1007700004F4E064C4F5E064210AC1F10403CA4052
:10078000447804FA03F184781440214309010E4CA3
:100790000678A155047804F01F050124AC400578C3
:1007A0006D11AD0005F1E025C5F8004109E00478C0
:1007B00004F01F050124AC40044D0678761145F87D
:1007C000264070BD0CED00E000E400E080E100E0B8
:1007D0007047000001460020034A506820F4404062
:1007E00008435060704700000010024029B1064ADB
:1007F00052690243044B5A6104E0034A526982433E
:10080000014B5A61704700000010024029B1064AAE
:10081000D2690243044BDA6104E0034AD26982439D
:10082000014BDA61704700000010024029B1064A0E
:1008300092690243044B9A6104E0034A926982433D
:10084000014B9A61704700000010024030B5002152
:100850000022002400232D4D6D6805F00C0121B10C
:10086000042905D0082923D105E0294D056022E09F
:10087000274D05601FE0254D6D6805F47012234D6E
:100880006D6805F48034022505EB92421CB9214DB8
:10089000554305600BE01D4D6D6805F400351DB135
:1008A0001C4D5543056002E0194D5543056002E0BB
:1008B000174D056000BF00BF144D6D6805F0F001D5
:1008C0000909154D6B5C0568DD4045600F4D6D688D
:1008D00005F4E061090A104D6B5C4568DD408560F8
:1008E0000A4D6D6805F46051C90A0B4D6B5C456893
:1008F000DD40C560054D6D6805F44041890B074D2D
:100900006B5CC568B5FBF3F5056130BD00100240B6
:1009100000127A0000093D000000002010000020B5
:100920007047000000B591B0012144F20400FFF7C8
:100930007DFF01210846FFF759FF18208DF843007D
:100940004FF40070ADF8400003208DF8420010A96C
:100950001B48FFF775FE1B480C900020ADF83C00CB
:100960000820ADF83A000020ADF83800ADF83600A8
:10097000ADF834000CA9144800F068F90122802178
:10098000114800F059F901210F4800F049F90E48CB
:10099000001D019000200790059002900890802093
:1009A0000690102003900020049009900B904FF4C3
:1009B00080500A9001A90548FFF721FE11B000BD43
:1009C0000008014080841E000038014044000240BD
:1009D00070B504460D4600210948FFF7E5FD4FF4C8
:1009E0000050FFF7C5FD0648443804652946044811
:1009F000FFF723FE01210248FFF7D6FD70BD00007E
:100A00004400024010B500F001F810BD0CB5002004
:100A1000019000903348006840F48030314908600C
:100A200000BF3048006800F4003000900198401C7E
:100A30000190009818B90198B0F5A06FF1D129483C
:100A4000006800F4003010B10120009001E00020A7
:100A500000900098012843D12348006840F010001E
:100A6000214908600846006820F003000860084635
:100A7000006840F0020008601A4840681949486060
:100A80000846406848600846406840F48060486016
:100A90000846406820F47C1048600846406840F4EE
:100AA000E81048600846006840F08070086000BFA9
:100AB0000C48006800F000700028F9D00948406830
:100AC00020F00300074948600846406840F00200F3
:100AD000486000BF0348406800F00C000828F9D1C6
:100AE0000CBD0000001002400020024070470000D2
:100AF00010B51348006840F001001149086008462D
:100B00004068104908400E494860084600680E4990
:100B100008400B4908600846006820F480200860FF
:100B20000846406820F4FE0048604FF41F008860CB
:100B3000FFF768FF4FF000600449086010BD000037
:100B4000001002400000FFF8FFFFF6FE08ED00E095
:100B500021B1028842F00102028004E002884FF6CF
:100B6000FE731A400280704782884FF68F731A40D6
:100B7000828082880A4382807047000000220288B7
:100B80001D4B98420ED01D4B98420BD0B0F1804FB8
:100B900008D01B4B984205D01A4B984202D01A4BF2
:100BA000984204D14FF68F731A404B881A43174B63
:100BB000984207D0164B984204D04FF6FF431A4094
:100BC000CB881A4302808B8883850B8803850A4B68
:100BD00098420BD0094B984208D00E4B984205D052
:100BE0000D4B984202D00D4B984201D10B7A0386EF
:100BF0000123838270470000002C01400034014033
:100C00000004004000080040000C004000100040BC
:100C100000140040004001400044014000480140F1
:100C200021B1828942F40052828104E082894DF62A
:100C3000FF731A40828170471AB1838A0B43838203
:100C400002E0838A8B438382704700002DE9F047DE
:100C500086B005460E460024A24600BFA1460027E6
:100C6000B08900B100BF2F462C8A4CF6FF700440BB
:100C7000F08804432C82AC894EF6F3100440B0880F
:100C800031890843718908430443AC81AC8A4FF62B
:100C9000FF400440B0890443AC8201A8FFF7D6FDB1
:100CA0001F48874202D1DDF810A001E0DDF80CA05A
:100CB000A88900F4004040B10AEBCA0000EB0A101A
:100CC00031684900B0FBF1F807E00AEBCA0000EB1D
:100CD0000A1031688900B0FBF1F86420B8FBF0F02D
:100CE00004012009642101FB1089A88900F4004057
:100CF00040B1322000EBC900B0FBF1F000F007007A
:100D0000044308E0322000EB09106421B0FBF1F04D
:100D100000F00F0004432C8106B0BDE8F08700000E
:100D20000038014000BFFEE7FFF7FCFDFFF74CFB7A
:100D300023E01248007801280DD100200F490870E7
:100D40004FF47A720E490F48FFF7EAFB4FF47A71BD
:100D50000B48FFF73DFE0C48007801280DD100201C
:100D6000094908704FF47A7205490848FFF7D8FB23
:100D70004FF47A710248FFF72BFEDAE714000020E7
:100D8000B80F00201800002015000020E807002000
:100D9000B00D000800000020180000002801000825
:100DA000C80D000818000020E819000044010008E0
:100DB0000000000001020304010203040607080901
:080DC000020406080000000017
:04000005080000ED02
:00000001FF
